{
  "_format": "hh-sol-artifact-1",
  "contractName": "DestinationChainToken",
  "sourceName": "contracts/Token/DestinationChainToken.sol",
  "abi": [
    {
      "inputs": [],
      "stateMutability": "nonpayable",
      "type": "constructor"
    },
    {
      "anonymous": false,
      "inputs": [
        {
          "indexed": true,
          "internalType": "address",
          "name": "owner",
          "type": "address"
        },
        {
          "indexed": true,
          "internalType": "address",
          "name": "spender",
          "type": "address"
        },
        {
          "indexed": false,
          "internalType": "uint256",
          "name": "value",
          "type": "uint256"
        }
      ],
      "name": "Approval",
      "type": "event"
    },
    {
      "anonymous": false,
      "inputs": [
        {
          "indexed": true,
          "internalType": "address",
          "name": "from",
          "type": "address"
        },
        {
          "indexed": true,
          "internalType": "address",
          "name": "to",
          "type": "address"
        },
        {
          "indexed": false,
          "internalType": "uint256",
          "name": "value",
          "type": "uint256"
        }
      ],
      "name": "Transfer",
      "type": "event"
    },
    {
      "inputs": [],
      "name": "admin",
      "outputs": [
        {
          "internalType": "address",
          "name": "",
          "type": "address"
        }
      ],
      "stateMutability": "view",
      "type": "function"
    },
    {
      "inputs": [
        {
          "internalType": "address",
          "name": "owner",
          "type": "address"
        },
        {
          "internalType": "address",
          "name": "spender",
          "type": "address"
        }
      ],
      "name": "allowance",
      "outputs": [
        {
          "internalType": "uint256",
          "name": "",
          "type": "uint256"
        }
      ],
      "stateMutability": "view",
      "type": "function"
    },
    {
      "inputs": [
        {
          "internalType": "address",
          "name": "spender",
          "type": "address"
        },
        {
          "internalType": "uint256",
          "name": "amount",
          "type": "uint256"
        }
      ],
      "name": "approve",
      "outputs": [
        {
          "internalType": "bool",
          "name": "",
          "type": "bool"
        }
      ],
      "stateMutability": "nonpayable",
      "type": "function"
    },
    {
      "inputs": [
        {
          "internalType": "address",
          "name": "account",
          "type": "address"
        }
      ],
      "name": "balanceOf",
      "outputs": [
        {
          "internalType": "uint256",
          "name": "",
          "type": "uint256"
        }
      ],
      "stateMutability": "view",
      "type": "function"
    },
    {
      "inputs": [
        {
          "internalType": "address",
          "name": "owner",
          "type": "address"
        },
        {
          "internalType": "uint256",
          "name": "amount",
          "type": "uint256"
        }
      ],
      "name": "burn",
      "outputs": [],
      "stateMutability": "nonpayable",
      "type": "function"
    },
    {
      "inputs": [],
      "name": "decimals",
      "outputs": [
        {
          "internalType": "uint8",
          "name": "",
          "type": "uint8"
        }
      ],
      "stateMutability": "view",
      "type": "function"
    },
    {
      "inputs": [
        {
          "internalType": "address",
          "name": "spender",
          "type": "address"
        },
        {
          "internalType": "uint256",
          "name": "subtractedValue",
          "type": "uint256"
        }
      ],
      "name": "decreaseAllowance",
      "outputs": [
        {
          "internalType": "bool",
          "name": "",
          "type": "bool"
        }
      ],
      "stateMutability": "nonpayable",
      "type": "function"
    },
    {
      "inputs": [
        {
          "internalType": "address",
          "name": "spender",
          "type": "address"
        },
        {
          "internalType": "uint256",
          "name": "addedValue",
          "type": "uint256"
        }
      ],
      "name": "increaseAllowance",
      "outputs": [
        {
          "internalType": "bool",
          "name": "",
          "type": "bool"
        }
      ],
      "stateMutability": "nonpayable",
      "type": "function"
    },
    {
      "inputs": [
        {
          "internalType": "address",
          "name": "to",
          "type": "address"
        },
        {
          "internalType": "uint256",
          "name": "amount",
          "type": "uint256"
        }
      ],
      "name": "mint",
      "outputs": [],
      "stateMutability": "nonpayable",
      "type": "function"
    },
    {
      "inputs": [],
      "name": "name",
      "outputs": [
        {
          "internalType": "string",
          "name": "",
          "type": "string"
        }
      ],
      "stateMutability": "view",
      "type": "function"
    },
    {
      "inputs": [],
      "name": "symbol",
      "outputs": [
        {
          "internalType": "string",
          "name": "",
          "type": "string"
        }
      ],
      "stateMutability": "view",
      "type": "function"
    },
    {
      "inputs": [],
      "name": "totalSupply",
      "outputs": [
        {
          "internalType": "uint256",
          "name": "",
          "type": "uint256"
        }
      ],
      "stateMutability": "view",
      "type": "function"
    },
    {
      "inputs": [
        {
          "internalType": "address",
          "name": "to",
          "type": "address"
        },
        {
          "internalType": "uint256",
          "name": "amount",
          "type": "uint256"
        }
      ],
      "name": "transfer",
      "outputs": [
        {
          "internalType": "bool",
          "name": "",
          "type": "bool"
        }
      ],
      "stateMutability": "nonpayable",
      "type": "function"
    },
    {
      "inputs": [
        {
          "internalType": "address",
          "name": "from",
          "type": "address"
        },
        {
          "internalType": "address",
          "name": "to",
          "type": "address"
        },
        {
          "internalType": "uint256",
          "name": "amount",
          "type": "uint256"
        }
      ],
      "name": "transferFrom",
      "outputs": [
        {
          "internalType": "bool",
          "name": "",
          "type": "bool"
        }
      ],
      "stateMutability": "nonpayable",
      "type": "function"
    }
  ],
  "bytecode": "0x60806040523480156200001157600080fd5b506040518060400160405280601581526020017f44657374696e6174696f6e436861696e546f6b656e00000000000000000000008152506040518060400160405280600381526020017f44435400000000000000000000000000000000000000000000000000000000008152508181816003908051906020019062000098929190620000fd565b508060049080519060200190620000b1929190620000fd565b50505033600560006101000a81548173ffffffffffffffffffffffffffffffffffffffff021916908373ffffffffffffffffffffffffffffffffffffffff160217905550505062000212565b8280546200010b90620001ad565b90600052602060002090601f0160209004810192826200012f57600085556200017b565b82601f106200014a57805160ff19168380011785556200017b565b828001600101855582156200017b579182015b828111156200017a5782518255916020019190600101906200015d565b5b5090506200018a91906200018e565b5090565b5b80821115620001a95760008160009055506001016200018f565b5090565b60006002820490506001821680620001c657607f821691505b60208210811415620001dd57620001dc620001e3565b5b50919050565b7f4e487b7100000000000000000000000000000000000000000000000000000000600052602260045260246000fd5b61185180620002226000396000f3fe608060405234801561001057600080fd5b50600436106100ea5760003560e01c806370a082311161008c578063a457c2d711610066578063a457c2d71461025f578063a9059cbb1461028f578063dd62ed3e146102bf578063f851a440146102ef576100ea565b806370a08231146101f557806395d89b41146102255780639dc29fac14610243576100ea565b806323b872dd116100c857806323b872dd1461015b578063313ce5671461018b57806339509351146101a957806340c10f19146101d9576100ea565b806306fdde03146100ef578063095ea7b31461010d57806318160ddd1461013d575b600080fd5b6100f761030d565b60405161010491906111bc565b60405180910390f35b61012760048036038101906101229190610f77565b61039f565b60405161013491906111a1565b60405180910390f35b6101456103c2565b604051610152919061131e565b60405180910390f35b61017560048036038101906101709190610f28565b6103cc565b60405161018291906111a1565b60405180910390f35b6101936103fb565b6040516101a09190611339565b60405180910390f35b6101c360048036038101906101be9190610f77565b610404565b6040516101d091906111a1565b60405180910390f35b6101f360048036038101906101ee9190610f77565b61043b565b005b61020f600480360381019061020a9190610ec3565b610449565b60405161021c919061131e565b60405180910390f35b61022d610491565b60405161023a91906111bc565b60405180910390f35b61025d60048036038101906102589190610f77565b610523565b005b61027960048036038101906102749190610f77565b610531565b60405161028691906111a1565b60405180910390f35b6102a960048036038101906102a49190610f77565b6105a8565b6040516102b691906111a1565b60405180910390f35b6102d960048036038101906102d49190610eec565b6105cb565b6040516102e6919061131e565b60405180910390f35b6102f7610652565b6040516103049190611186565b60405180910390f35b60606003805461031c90611482565b80601f016020809104026020016040519081016040528092919081815260200182805461034890611482565b80156103955780601f1061036a57610100808354040283529160200191610395565b820191906000526020600020905b81548152906001019060200180831161037857829003601f168201915b5050505050905090565b6000806103aa610678565b90506103b7818585610680565b600191505092915050565b6000600254905090565b6000806103d7610678565b90506103e485828561084b565b6103ef8585856108d7565b60019150509392505050565b60006012905090565b60008061040f610678565b905061043081858561042185896105cb565b61042b9190611370565b610680565b600191505092915050565b6104458282610b58565b5050565b60008060008373ffffffffffffffffffffffffffffffffffffffff1673ffffffffffffffffffffffffffffffffffffffff168152602001908152602001600020549050919050565b6060600480546104a090611482565b80601f01602080910402602001604051908101604052809291908181526020018280546104cc90611482565b80156105195780601f106104ee57610100808354040283529160200191610519565b820191906000526020600020905b8154815290600101906020018083116104fc57829003601f168201915b5050505050905090565b61052d8282610cb8565b5050565b60008061053c610678565b9050600061054a82866105cb565b90508381101561058f576040517f08c379a0000000000000000000000000000000000000000000000000000000008152600401610586906112de565b60405180910390fd5b61059c8286868403610680565b60019250505092915050565b6000806105b3610678565b90506105c08185856108d7565b600191505092915050565b6000600160008473ffffffffffffffffffffffffffffffffffffffff1673ffffffffffffffffffffffffffffffffffffffff16815260200190815260200160002060008373ffffffffffffffffffffffffffffffffffffffff1673ffffffffffffffffffffffffffffffffffffffff16815260200190815260200160002054905092915050565b600560009054906101000a900473ffffffffffffffffffffffffffffffffffffffff1681565b600033905090565b600073ffffffffffffffffffffffffffffffffffffffff168373ffffffffffffffffffffffffffffffffffffffff1614156106f0576040517f08c379a00000000000000000000000000000000000000000000000000000000081526004016106e7906112be565b60405180910390fd5b600073ffffffffffffffffffffffffffffffffffffffff168273ffffffffffffffffffffffffffffffffffffffff161415610760576040517f08c379a00000000000000000000000000000000000000000000000000000000081526004016107579061121e565b60405180910390fd5b80600160008573ffffffffffffffffffffffffffffffffffffffff1673ffffffffffffffffffffffffffffffffffffffff16815260200190815260200160002060008473ffffffffffffffffffffffffffffffffffffffff1673ffffffffffffffffffffffffffffffffffffffff168152602001908152602001600020819055508173ffffffffffffffffffffffffffffffffffffffff168373ffffffffffffffffffffffffffffffffffffffff167f8c5be1e5ebec7d5bd14f71427d1e84f3dd0314c0f7b2291e5b200ac8c7c3b9258360405161083e919061131e565b60405180910390a3505050565b600061085784846105cb565b90507fffffffffffffffffffffffffffffffffffffffffffffffffffffffffffffffff81146108d157818110156108c3576040517f08c379a00000000000000000000000000000000000000000000000000000000081526004016108ba9061123e565b60405180910390fd5b6108d08484848403610680565b5b50505050565b600073ffffffffffffffffffffffffffffffffffffffff168373ffffffffffffffffffffffffffffffffffffffff161415610947576040517f08c379a000000000000000000000000000000000000000000000000000000000815260040161093e9061129e565b60405180910390fd5b600073ffffffffffffffffffffffffffffffffffffffff168273ffffffffffffffffffffffffffffffffffffffff1614156109b7576040517f08c379a00000000000000000000000000000000000000000000000000000000081526004016109ae906111de565b60405180910390fd5b6109c2838383610e8f565b60008060008573ffffffffffffffffffffffffffffffffffffffff1673ffffffffffffffffffffffffffffffffffffffff16815260200190815260200160002054905081811015610a48576040517f08c379a0000000000000000000000000000000000000000000000000000000008152600401610a3f9061125e565b60405180910390fd5b8181036000808673ffffffffffffffffffffffffffffffffffffffff1673ffffffffffffffffffffffffffffffffffffffff16815260200190815260200160002081905550816000808573ffffffffffffffffffffffffffffffffffffffff1673ffffffffffffffffffffffffffffffffffffffff1681526020019081526020016000206000828254610adb9190611370565b925050819055508273ffffffffffffffffffffffffffffffffffffffff168473ffffffffffffffffffffffffffffffffffffffff167fddf252ad1be2c89b69c2b068fc378daa952ba7f163c4a11628f55a4df523b3ef84604051610b3f919061131e565b60405180910390a3610b52848484610e94565b50505050565b600073ffffffffffffffffffffffffffffffffffffffff168273ffffffffffffffffffffffffffffffffffffffff161415610bc8576040517f08c379a0000000000000000000000000000000000000000000000000000000008152600401610bbf906112fe565b60405180910390fd5b610bd460008383610e8f565b8060026000828254610be69190611370565b92505081905550806000808473ffffffffffffffffffffffffffffffffffffffff1673ffffffffffffffffffffffffffffffffffffffff1681526020019081526020016000206000828254610c3b9190611370565b925050819055508173ffffffffffffffffffffffffffffffffffffffff16600073ffffffffffffffffffffffffffffffffffffffff167fddf252ad1be2c89b69c2b068fc378daa952ba7f163c4a11628f55a4df523b3ef83604051610ca0919061131e565b60405180910390a3610cb460008383610e94565b5050565b600073ffffffffffffffffffffffffffffffffffffffff168273ffffffffffffffffffffffffffffffffffffffff161415610d28576040517f08c379a0000000000000000000000000000000000000000000000000000000008152600401610d1f9061127e565b60405180910390fd5b610d3482600083610e8f565b60008060008473ffffffffffffffffffffffffffffffffffffffff1673ffffffffffffffffffffffffffffffffffffffff16815260200190815260200160002054905081811015610dba576040517f08c379a0000000000000000000000000000000000000000000000000000000008152600401610db1906111fe565b60405180910390fd5b8181036000808573ffffffffffffffffffffffffffffffffffffffff1673ffffffffffffffffffffffffffffffffffffffff168152602001908152602001600020819055508160026000828254610e1191906113c6565b92505081905550600073ffffffffffffffffffffffffffffffffffffffff168373ffffffffffffffffffffffffffffffffffffffff167fddf252ad1be2c89b69c2b068fc378daa952ba7f163c4a11628f55a4df523b3ef84604051610e76919061131e565b60405180910390a3610e8a83600084610e94565b505050565b505050565b505050565b600081359050610ea8816117ed565b92915050565b600081359050610ebd81611804565b92915050565b600060208284031215610ed557600080fd5b6000610ee384828501610e99565b91505092915050565b60008060408385031215610eff57600080fd5b6000610f0d85828601610e99565b9250506020610f1e85828601610e99565b9150509250929050565b600080600060608486031215610f3d57600080fd5b6000610f4b86828701610e99565b9350506020610f5c86828701610e99565b9250506040610f6d86828701610eae565b9150509250925092565b60008060408385031215610f8a57600080fd5b6000610f9885828601610e99565b9250506020610fa985828601610eae565b9150509250929050565b610fbc816113fa565b82525050565b610fcb8161140c565b82525050565b6000610fdc82611354565b610fe6818561135f565b9350610ff681856020860161144f565b610fff81611512565b840191505092915050565b600061101760238361135f565b915061102282611523565b604082019050919050565b600061103a60228361135f565b915061104582611572565b604082019050919050565b600061105d60228361135f565b9150611068826115c1565b604082019050919050565b6000611080601d8361135f565b915061108b82611610565b602082019050919050565b60006110a360268361135f565b91506110ae82611639565b604082019050919050565b60006110c660218361135f565b91506110d182611688565b604082019050919050565b60006110e960258361135f565b91506110f4826116d7565b604082019050919050565b600061110c60248361135f565b915061111782611726565b604082019050919050565b600061112f60258361135f565b915061113a82611775565b604082019050919050565b6000611152601f8361135f565b915061115d826117c4565b602082019050919050565b61117181611438565b82525050565b61118081611442565b82525050565b600060208201905061119b6000830184610fb3565b92915050565b60006020820190506111b66000830184610fc2565b92915050565b600060208201905081810360008301526111d68184610fd1565b905092915050565b600060208201905081810360008301526111f78161100a565b9050919050565b600060208201905081810360008301526112178161102d565b9050919050565b6000602082019050818103600083015261123781611050565b9050919050565b6000602082019050818103600083015261125781611073565b9050919050565b6000602082019050818103600083015261127781611096565b9050919050565b60006020820190508181036000830152611297816110b9565b9050919050565b600060208201905081810360008301526112b7816110dc565b9050919050565b600060208201905081810360008301526112d7816110ff565b9050919050565b600060208201905081810360008301526112f781611122565b9050919050565b6000602082019050818103600083015261131781611145565b9050919050565b60006020820190506113336000830184611168565b92915050565b600060208201905061134e6000830184611177565b92915050565b600081519050919050565b600082825260208201905092915050565b600061137b82611438565b915061138683611438565b9250827fffffffffffffffffffffffffffffffffffffffffffffffffffffffffffffffff038211156113bb576113ba6114b4565b5b828201905092915050565b60006113d182611438565b91506113dc83611438565b9250828210156113ef576113ee6114b4565b5b828203905092915050565b600061140582611418565b9050919050565b60008115159050919050565b600073ffffffffffffffffffffffffffffffffffffffff82169050919050565b6000819050919050565b600060ff82169050919050565b60005b8381101561146d578082015181840152602081019050611452565b8381111561147c576000848401525b50505050565b6000600282049050600182168061149a57607f821691505b602082108114156114ae576114ad6114e3565b5b50919050565b7f4e487b7100000000000000000000000000000000000000000000000000000000600052601160045260246000fd5b7f4e487b7100000000000000000000000000000000000000000000000000000000600052602260045260246000fd5b6000601f19601f8301169050919050565b7f45524332303a207472616e7366657220746f20746865207a65726f206164647260008201527f6573730000000000000000000000000000000000000000000000000000000000602082015250565b7f45524332303a206275726e20616d6f756e7420657863656564732062616c616e60008201527f6365000000000000000000000000000000000000000000000000000000000000602082015250565b7f45524332303a20617070726f766520746f20746865207a65726f20616464726560008201527f7373000000000000000000000000000000000000000000000000000000000000602082015250565b7f45524332303a20696e73756666696369656e7420616c6c6f77616e6365000000600082015250565b7f45524332303a207472616e7366657220616d6f756e742065786365656473206260008201527f616c616e63650000000000000000000000000000000000000000000000000000602082015250565b7f45524332303a206275726e2066726f6d20746865207a65726f2061646472657360008201527f7300000000000000000000000000000000000000000000000000000000000000602082015250565b7f45524332303a207472616e736665722066726f6d20746865207a65726f20616460008201527f6472657373000000000000000000000000000000000000000000000000000000602082015250565b7f45524332303a20617070726f76652066726f6d20746865207a65726f2061646460008201527f7265737300000000000000000000000000000000000000000000000000000000602082015250565b7f45524332303a2064656372656173656420616c6c6f77616e63652062656c6f7760008201527f207a65726f000000000000000000000000000000000000000000000000000000602082015250565b7f45524332303a206d696e7420746f20746865207a65726f206164647265737300600082015250565b6117f6816113fa565b811461180157600080fd5b50565b61180d81611438565b811461181857600080fd5b5056fea2646970667358221220251f930693880b5c086fd18f9c7c8fe0c736609dce3469519854910c3aa08c5d64736f6c63430008040033",
  "linkReferences": {},
  "deployedLinkReferences": {}
}