{
  "_format": "hh-sol-artifact-1",
  "contractName": "Bridge",
  "sourceName": "contracts/Bridge.sol",
  "abi": [
    {
      "inputs": [
        {
          "internalType": "address",
          "name": "_token",
          "type": "address"
        }
      ],
      "stateMutability": "nonpayable",
      "type": "constructor"
    },
    {
      "anonymous": false,
      "inputs": [
        {
          "indexed": false,
          "internalType": "address",
          "name": "from",
          "type": "address"
        },
        {
          "indexed": false,
          "internalType": "address",
          "name": "to",
          "type": "address"
        },
        {
          "indexed": false,
          "internalType": "uint256",
          "name": "amount",
          "type": "uint256"
        },
        {
          "indexed": false,
          "internalType": "uint256",
          "name": "date",
          "type": "uint256"
        },
        {
          "indexed": false,
          "internalType": "uint256",
          "name": "nonce",
          "type": "uint256"
        },
        {
          "indexed": true,
          "internalType": "enum Bridge.Step",
          "name": "step",
          "type": "uint8"
        }
      ],
      "name": "Transfer",
      "type": "event"
    },
    {
      "inputs": [],
      "name": "admin",
      "outputs": [
        {
          "internalType": "address",
          "name": "",
          "type": "address"
        }
      ],
      "stateMutability": "view",
      "type": "function"
    },
    {
      "inputs": [
        {
          "internalType": "address",
          "name": "to",
          "type": "address"
        },
        {
          "internalType": "uint256",
          "name": "amount",
          "type": "uint256"
        }
      ],
      "name": "burn",
      "outputs": [],
      "stateMutability": "nonpayable",
      "type": "function"
    },
    {
      "inputs": [
        {
          "internalType": "address",
          "name": "owner",
          "type": "address"
        },
        {
          "internalType": "uint256",
          "name": "amount",
          "type": "uint256"
        }
      ],
      "name": "lock",
      "outputs": [],
      "stateMutability": "payable",
      "type": "function"
    },
    {
      "inputs": [
        {
          "internalType": "address",
          "name": "to",
          "type": "address"
        },
        {
          "internalType": "uint256",
          "name": "amount",
          "type": "uint256"
        },
        {
          "internalType": "uint256",
          "name": "destinationChainNonce",
          "type": "uint256"
        }
      ],
      "name": "mint",
      "outputs": [],
      "stateMutability": "nonpayable",
      "type": "function"
    },
    {
      "inputs": [],
      "name": "nonce",
      "outputs": [
        {
          "internalType": "uint256",
          "name": "",
          "type": "uint256"
        }
      ],
      "stateMutability": "view",
      "type": "function"
    },
    {
      "inputs": [
        {
          "internalType": "address",
          "name": "recipient",
          "type": "address"
        },
        {
          "internalType": "uint256",
          "name": "amount",
          "type": "uint256"
        },
        {
          "internalType": "uint256",
          "name": "destinationChainNonce",
          "type": "uint256"
        }
      ],
      "name": "release",
      "outputs": [],
      "stateMutability": "nonpayable",
      "type": "function"
    },
    {
      "inputs": [],
      "name": "token",
      "outputs": [
        {
          "internalType": "contract IToken",
          "name": "",
          "type": "address"
        }
      ],
      "stateMutability": "view",
      "type": "function"
    }
  ],
  "bytecode": "0x608060405234801561001057600080fd5b50604051610d6f380380610d6f833981810160405281019061003291906100ce565b336000806101000a81548173ffffffffffffffffffffffffffffffffffffffff021916908373ffffffffffffffffffffffffffffffffffffffff16021790555080600160006101000a81548173ffffffffffffffffffffffffffffffffffffffff021916908373ffffffffffffffffffffffffffffffffffffffff16021790555050610140565b6000815190506100c881610129565b92915050565b6000602082840312156100e057600080fd5b60006100ee848285016100b9565b91505092915050565b600061010282610109565b9050919050565b600073ffffffffffffffffffffffffffffffffffffffff82169050919050565b610132816100f7565b811461013d57600080fd5b50565b610c208061014f6000396000f3fe6080604052600436106100705760003560e01c8063affed0e01161004e578063affed0e0146100e3578063f297be661461010e578063f851a44014610137578063fc0c546a1461016257610070565b8063156e29f614610075578063282d3fdf1461009e5780639dc29fac146100ba575b600080fd5b34801561008157600080fd5b5061009c60048036038101906100979190610871565b61018d565b005b6100b860048036038101906100b39190610835565b61031b565b005b3480156100c657600080fd5b506100e160048036038101906100dc9190610835565b610442565b005b3480156100ef57600080fd5b506100f8610568565b6040516101059190610a3f565b60405180910390f35b34801561011a57600080fd5b5061013560048036038101906101309190610871565b61056e565b005b34801561014357600080fd5b5061014c6106fc565b6040516101599190610926565b60405180910390f35b34801561016e57600080fd5b50610177610720565b60405161018491906109f4565b60405180910390f35b600015156003600083815260200190815260200160002060009054906101000a900460ff16151514156102f35760016003600083815260200190815260200160002060006101000a81548160ff021916908315150217905550600160009054906101000a900473ffffffffffffffffffffffffffffffffffffffff1673ffffffffffffffffffffffffffffffffffffffff166340c10f1984846040518363ffffffff1660e01b81526004016102439291906109cb565b600060405180830381600087803b15801561025d57600080fd5b505af1158015610271573d6000803e3d6000fd5b50505050600060038111156102af577f4e487b7100000000000000000000000000000000000000000000000000000000600052602160045260246000fd5b7f27757542a5e1b9e8cef80f584e094d4eb63b9802f355c61b3640b71b618d5c8e33858542866040516102e6959493929190610978565b60405180910390a2610316565b6103156040518060600160405280602a8152602001610bc1602a913982610746565b5b505050565b600160009054906101000a900473ffffffffffffffffffffffffffffffffffffffff1673ffffffffffffffffffffffffffffffffffffffff16637750c9f08330846040518463ffffffff1660e01b815260040161037a93929190610941565b600060405180830381600087803b15801561039457600080fd5b505af11580156103a8573d6000803e3d6000fd5b505050506003808111156103e5577f4e487b7100000000000000000000000000000000000000000000000000000000600052602160045260246000fd5b7f27757542a5e1b9e8cef80f584e094d4eb63b9802f355c61b3640b71b618d5c8e3330844260025460405161041e959493929190610978565b60405180910390a26002600081548092919061043990610b09565b91905055505050565b600160009054906101000a900473ffffffffffffffffffffffffffffffffffffffff1673ffffffffffffffffffffffffffffffffffffffff16639dc29fac33836040518363ffffffff1660e01b815260040161049f9291906109cb565b600060405180830381600087803b1580156104b957600080fd5b505af11580156104cd573d6000803e3d6000fd5b505050506001600381111561050b577f4e487b7100000000000000000000000000000000000000000000000000000000600052602160045260246000fd5b7f27757542a5e1b9e8cef80f584e094d4eb63b9802f355c61b3640b71b618d5c8e33848442600254604051610544959493929190610978565b60405180910390a26002600081548092919061055f90610b09565b91905055505050565b60025481565b600015156003600083815260200190815260200160002060009054906101000a900460ff16151514156106d45760016003600083815260200190815260200160002060006101000a81548160ff021916908315150217905550600160009054906101000a900473ffffffffffffffffffffffffffffffffffffffff1673ffffffffffffffffffffffffffffffffffffffff16630357371d84846040518363ffffffff1660e01b81526004016106249291906109cb565b600060405180830381600087803b15801561063e57600080fd5b505af1158015610652573d6000803e3d6000fd5b5050505060026003811115610690577f4e487b7100000000000000000000000000000000000000000000000000000000600052602160045260246000fd5b7f27757542a5e1b9e8cef80f584e094d4eb63b9802f355c61b3640b71b618d5c8e33858542866040516106c7959493929190610978565b60405180910390a26106f7565b6106f66040518060600160405280602a8152602001610bc1602a913982610746565b5b505050565b60008054906101000a900473ffffffffffffffffffffffffffffffffffffffff1681565b600160009054906101000a900473ffffffffffffffffffffffffffffffffffffffff1681565b6107de828260405160240161075c929190610a0f565b6040516020818303038152906040527f9710a9d0000000000000000000000000000000000000000000000000000000007bffffffffffffffffffffffffffffffffffffffffffffffffffffffff19166020820180517bffffffffffffffffffffffffffffffffffffffffffffffffffffffff83818316178352505050506107e2565b5050565b60008151905060006a636f6e736f6c652e6c6f679050602083016000808483855afa5050505050565b60008135905061081a81610b92565b92915050565b60008135905061082f81610ba9565b92915050565b6000806040838503121561084857600080fd5b60006108568582860161080b565b925050602061086785828601610820565b9150509250929050565b60008060006060848603121561088657600080fd5b60006108948682870161080b565b93505060206108a586828701610820565b92505060406108b686828701610820565b9150509250925092565b6108c981610a76565b82525050565b6108d881610ab2565b82525050565b60006108e982610a5a565b6108f38185610a65565b9350610903818560208601610ad6565b61090c81610b81565b840191505092915050565b61092081610aa8565b82525050565b600060208201905061093b60008301846108c0565b92915050565b600060608201905061095660008301866108c0565b61096360208301856108c0565b6109706040830184610917565b949350505050565b600060a08201905061098d60008301886108c0565b61099a60208301876108c0565b6109a76040830186610917565b6109b46060830185610917565b6109c16080830184610917565b9695505050505050565b60006040820190506109e060008301856108c0565b6109ed6020830184610917565b9392505050565b6000602082019050610a0960008301846108cf565b92915050565b60006040820190508181036000830152610a2981856108de565b9050610a386020830184610917565b9392505050565b6000602082019050610a546000830184610917565b92915050565b600081519050919050565b600082825260208201905092915050565b6000610a8182610a88565b9050919050565b600073ffffffffffffffffffffffffffffffffffffffff82169050919050565b6000819050919050565b6000610abd82610ac4565b9050919050565b6000610acf82610a88565b9050919050565b60005b83811015610af4578082015181840152602081019050610ad9565b83811115610b03576000848401525b50505050565b6000610b1482610aa8565b91507fffffffffffffffffffffffffffffffffffffffffffffffffffffffffffffffff821415610b4757610b46610b52565b5b600182019050919050565b7f4e487b7100000000000000000000000000000000000000000000000000000000600052601160045260246000fd5b6000601f19601f8301169050919050565b610b9b81610a76565b8114610ba657600080fd5b50565b610bb281610aa8565b8114610bbd57600080fd5b5056fe5472616e73666572206f662074686973206e6f6e636520616c72656164792070726f6365737365643a20a2646970667358221220e52fead7e2df1f46da72d3e4e8fa21db7494fde0b40245e801e8d13fda9bbe9a64736f6c63430008040033",
  "linkReferences": {},
  "deployedLinkReferences": {}
}