{
  "_format": "hh-sol-artifact-1",
  "contractName": "SourceChainBridge",
  "sourceName": "contracts/SourceChainBridge.sol",
  "abi": [
    {
      "inputs": [
        {
          "internalType": "address",
          "name": "token",
          "type": "address"
        }
      ],
      "stateMutability": "nonpayable",
      "type": "constructor"
    },
    {
      "anonymous": false,
      "inputs": [
        {
          "indexed": false,
          "internalType": "address",
          "name": "from",
          "type": "address"
        },
        {
          "indexed": false,
          "internalType": "address",
          "name": "to",
          "type": "address"
        },
        {
          "indexed": false,
          "internalType": "uint256",
          "name": "amount",
          "type": "uint256"
        },
        {
          "indexed": false,
          "internalType": "uint256",
          "name": "date",
          "type": "uint256"
        },
        {
          "indexed": false,
          "internalType": "uint256",
          "name": "nonce",
          "type": "uint256"
        },
        {
          "indexed": true,
          "internalType": "enum Bridge.Step",
          "name": "step",
          "type": "uint8"
        }
      ],
      "name": "Transfer",
      "type": "event"
    },
    {
      "inputs": [],
      "name": "admin",
      "outputs": [
        {
          "internalType": "address",
          "name": "",
          "type": "address"
        }
      ],
      "stateMutability": "view",
      "type": "function"
    },
    {
      "inputs": [
        {
          "internalType": "address",
          "name": "to",
          "type": "address"
        },
        {
          "internalType": "uint256",
          "name": "amount",
          "type": "uint256"
        }
      ],
      "name": "burn",
      "outputs": [],
      "stateMutability": "nonpayable",
      "type": "function"
    },
    {
      "inputs": [
        {
          "internalType": "address",
          "name": "to",
          "type": "address"
        },
        {
          "internalType": "uint256",
          "name": "amount",
          "type": "uint256"
        },
        {
          "internalType": "uint256",
          "name": "destinationChainNonce",
          "type": "uint256"
        }
      ],
      "name": "mint",
      "outputs": [],
      "stateMutability": "nonpayable",
      "type": "function"
    },
    {
      "inputs": [],
      "name": "nonce",
      "outputs": [
        {
          "internalType": "uint256",
          "name": "",
          "type": "uint256"
        }
      ],
      "stateMutability": "view",
      "type": "function"
    },
    {
      "inputs": [],
      "name": "token",
      "outputs": [
        {
          "internalType": "contract IToken",
          "name": "",
          "type": "address"
        }
      ],
      "stateMutability": "view",
      "type": "function"
    }
  ],
  "bytecode": "0x608060405234801561001057600080fd5b5060405161094c38038061094c833981810160405281019061003291906100d0565b80336000806101000a81548173ffffffffffffffffffffffffffffffffffffffff021916908373ffffffffffffffffffffffffffffffffffffffff16021790555080600160006101000a81548173ffffffffffffffffffffffffffffffffffffffff021916908373ffffffffffffffffffffffffffffffffffffffff1602179055505050610142565b6000815190506100ca8161012b565b92915050565b6000602082840312156100e257600080fd5b60006100f0848285016100bb565b91505092915050565b60006101048261010b565b9050919050565b600073ffffffffffffffffffffffffffffffffffffffff82169050919050565b610134816100f9565b811461013f57600080fd5b50565b6107fb806101516000396000f3fe608060405234801561001057600080fd5b50600436106100575760003560e01c8063156e29f61461005c5780639dc29fac14610078578063affed0e014610094578063f851a440146100b2578063fc0c546a146100d0575b600080fd5b610076600480360381019061007191906104df565b6100ee565b005b610092600480360381019061008d91906104a3565b61031c565b005b61009c610429565b6040516100a99190610693565b60405180910390f35b6100ba61042f565b6040516100c791906105a1565b60405180910390f35b6100d8610453565b6040516100e59190610638565b60405180910390f35b60008054906101000a900473ffffffffffffffffffffffffffffffffffffffff1673ffffffffffffffffffffffffffffffffffffffff163373ffffffffffffffffffffffffffffffffffffffff161461017c576040517f08c379a000000000000000000000000000000000000000000000000000000000815260040161017390610673565b60405180910390fd5b600015156003600083815260200190815260200160002060009054906101000a900460ff161515146101e3576040517f08c379a00000000000000000000000000000000000000000000000000000000081526004016101da90610653565b60405180910390fd5b60016003600083815260200190815260200160002060006101000a81548160ff021916908315150217905550600160009054906101000a900473ffffffffffffffffffffffffffffffffffffffff1673ffffffffffffffffffffffffffffffffffffffff166340c10f1984846040518363ffffffff1660e01b815260040161026c92919061060f565b600060405180830381600087803b15801561028657600080fd5b505af115801561029a573d6000803e3d6000fd5b50505050600060018111156102d8577f4e487b7100000000000000000000000000000000000000000000000000000000600052602160045260246000fd5b7f27757542a5e1b9e8cef80f584e094d4eb63b9802f355c61b3640b71b618d5c8e338585428660405161030f9594939291906105bc565b60405180910390a2505050565b600160009054906101000a900473ffffffffffffffffffffffffffffffffffffffff1673ffffffffffffffffffffffffffffffffffffffff16639dc29fac33836040518363ffffffff1660e01b815260040161037992919061060f565b600060405180830381600087803b15801561039357600080fd5b505af11580156103a7573d6000803e3d6000fd5b505050506001808111156103e4577f4e487b7100000000000000000000000000000000000000000000000000000000600052602160045260246000fd5b7f27757542a5e1b9e8cef80f584e094d4eb63b9802f355c61b3640b71b618d5c8e3384844260025460405161041d9594939291906105bc565b60405180910390a25050565b60025481565b60008054906101000a900473ffffffffffffffffffffffffffffffffffffffff1681565b600160009054906101000a900473ffffffffffffffffffffffffffffffffffffffff1681565b60008135905061048881610797565b92915050565b60008135905061049d816107ae565b92915050565b600080604083850312156104b657600080fd5b60006104c485828601610479565b92505060206104d58582860161048e565b9150509250929050565b6000806000606084860312156104f457600080fd5b600061050286828701610479565b93505060206105138682870161048e565b92505060406105248682870161048e565b9150509250925092565b610537816106bf565b82525050565b610546816106fb565b82525050565b6000610559601a836106ae565b91506105648261071f565b602082019050919050565b600061057c6021836106ae565b915061058782610748565b604082019050919050565b61059b816106f1565b82525050565b60006020820190506105b6600083018461052e565b92915050565b600060a0820190506105d1600083018861052e565b6105de602083018761052e565b6105eb6040830186610592565b6105f86060830185610592565b6106056080830184610592565b9695505050505050565b6000604082019050610624600083018561052e565b6106316020830184610592565b9392505050565b600060208201905061064d600083018461053d565b92915050565b6000602082019050818103600083015261066c8161054c565b9050919050565b6000602082019050818103600083015261068c8161056f565b9050919050565b60006020820190506106a86000830184610592565b92915050565b600082825260208201905092915050565b60006106ca826106d1565b9050919050565b600073ffffffffffffffffffffffffffffffffffffffff82169050919050565b6000819050919050565b60006107068261070d565b9050919050565b6000610718826106d1565b9050919050565b7f5472616e7366657220616c72656164792070726f636573736564000000000000600082015250565b7f4f6e6c792061646d696e2063616e2063616c6c20746869732066756e6374696f60008201527f6e00000000000000000000000000000000000000000000000000000000000000602082015250565b6107a0816106bf565b81146107ab57600080fd5b50565b6107b7816106f1565b81146107c257600080fd5b5056fea2646970667358221220b6a74ba24063f46a96cc1a4f72f9cf72c9a87382e2acac04c3c5493e246a1cd764736f6c63430008040033",
  "linkReferences": {},
  "deployedLinkReferences": {}
}