{
  "_format": "hh-sol-artifact-1",
  "contractName": "SourceChainToken",
  "sourceName": "contracts/Token/SourceChainToken.sol",
  "abi": [
    {
      "inputs": [],
      "stateMutability": "nonpayable",
      "type": "constructor"
    },
    {
      "anonymous": false,
      "inputs": [
        {
          "indexed": true,
          "internalType": "address",
          "name": "owner",
          "type": "address"
        },
        {
          "indexed": true,
          "internalType": "address",
          "name": "spender",
          "type": "address"
        },
        {
          "indexed": false,
          "internalType": "uint256",
          "name": "value",
          "type": "uint256"
        }
      ],
      "name": "Approval",
      "type": "event"
    },
    {
      "anonymous": false,
      "inputs": [
        {
          "indexed": true,
          "internalType": "address",
          "name": "from",
          "type": "address"
        },
        {
          "indexed": true,
          "internalType": "address",
          "name": "to",
          "type": "address"
        },
        {
          "indexed": false,
          "internalType": "uint256",
          "name": "value",
          "type": "uint256"
        }
      ],
      "name": "Transfer",
      "type": "event"
    },
    {
      "inputs": [],
      "name": "admin",
      "outputs": [
        {
          "internalType": "address",
          "name": "",
          "type": "address"
        }
      ],
      "stateMutability": "view",
      "type": "function"
    },
    {
      "inputs": [
        {
          "internalType": "address",
          "name": "owner",
          "type": "address"
        },
        {
          "internalType": "address",
          "name": "spender",
          "type": "address"
        }
      ],
      "name": "allowance",
      "outputs": [
        {
          "internalType": "uint256",
          "name": "",
          "type": "uint256"
        }
      ],
      "stateMutability": "view",
      "type": "function"
    },
    {
      "inputs": [
        {
          "internalType": "address",
          "name": "spender",
          "type": "address"
        },
        {
          "internalType": "uint256",
          "name": "amount",
          "type": "uint256"
        }
      ],
      "name": "approve",
      "outputs": [
        {
          "internalType": "bool",
          "name": "",
          "type": "bool"
        }
      ],
      "stateMutability": "nonpayable",
      "type": "function"
    },
    {
      "inputs": [
        {
          "internalType": "address",
          "name": "account",
          "type": "address"
        }
      ],
      "name": "balanceOf",
      "outputs": [
        {
          "internalType": "uint256",
          "name": "",
          "type": "uint256"
        }
      ],
      "stateMutability": "view",
      "type": "function"
    },
    {
      "inputs": [
        {
          "internalType": "address",
          "name": "owner",
          "type": "address"
        },
        {
          "internalType": "uint256",
          "name": "amount",
          "type": "uint256"
        }
      ],
      "name": "burn",
      "outputs": [],
      "stateMutability": "nonpayable",
      "type": "function"
    },
    {
      "inputs": [],
      "name": "decimals",
      "outputs": [
        {
          "internalType": "uint8",
          "name": "",
          "type": "uint8"
        }
      ],
      "stateMutability": "view",
      "type": "function"
    },
    {
      "inputs": [
        {
          "internalType": "address",
          "name": "spender",
          "type": "address"
        },
        {
          "internalType": "uint256",
          "name": "subtractedValue",
          "type": "uint256"
        }
      ],
      "name": "decreaseAllowance",
      "outputs": [
        {
          "internalType": "bool",
          "name": "",
          "type": "bool"
        }
      ],
      "stateMutability": "nonpayable",
      "type": "function"
    },
    {
      "inputs": [
        {
          "internalType": "address",
          "name": "spender",
          "type": "address"
        },
        {
          "internalType": "uint256",
          "name": "addedValue",
          "type": "uint256"
        }
      ],
      "name": "increaseAllowance",
      "outputs": [
        {
          "internalType": "bool",
          "name": "",
          "type": "bool"
        }
      ],
      "stateMutability": "nonpayable",
      "type": "function"
    },
    {
      "inputs": [
        {
          "internalType": "address",
          "name": "to",
          "type": "address"
        },
        {
          "internalType": "uint256",
          "name": "amount",
          "type": "uint256"
        }
      ],
      "name": "mint",
      "outputs": [],
      "stateMutability": "nonpayable",
      "type": "function"
    },
    {
      "inputs": [],
      "name": "name",
      "outputs": [
        {
          "internalType": "string",
          "name": "",
          "type": "string"
        }
      ],
      "stateMutability": "view",
      "type": "function"
    },
    {
      "inputs": [],
      "name": "symbol",
      "outputs": [
        {
          "internalType": "string",
          "name": "",
          "type": "string"
        }
      ],
      "stateMutability": "view",
      "type": "function"
    },
    {
      "inputs": [],
      "name": "totalSupply",
      "outputs": [
        {
          "internalType": "uint256",
          "name": "",
          "type": "uint256"
        }
      ],
      "stateMutability": "view",
      "type": "function"
    },
    {
      "inputs": [
        {
          "internalType": "address",
          "name": "to",
          "type": "address"
        },
        {
          "internalType": "uint256",
          "name": "amount",
          "type": "uint256"
        }
      ],
      "name": "transfer",
      "outputs": [
        {
          "internalType": "bool",
          "name": "",
          "type": "bool"
        }
      ],
      "stateMutability": "nonpayable",
      "type": "function"
    },
    {
      "inputs": [
        {
          "internalType": "address",
          "name": "from",
          "type": "address"
        },
        {
          "internalType": "address",
          "name": "to",
          "type": "address"
        },
        {
          "internalType": "uint256",
          "name": "amount",
          "type": "uint256"
        }
      ],
      "name": "transferFrom",
      "outputs": [
        {
          "internalType": "bool",
          "name": "",
          "type": "bool"
        }
      ],
      "stateMutability": "nonpayable",
      "type": "function"
    },
    {
      "inputs": [
        {
          "internalType": "address",
          "name": "newAdmin",
          "type": "address"
        }
      ],
      "name": "updateAdmin",
      "outputs": [],
      "stateMutability": "nonpayable",
      "type": "function"
    }
  ],
  "bytecode": "0x60806040523480156200001157600080fd5b506040518060400160405280601081526020017f536f75726365436861696e546f6b656e000000000000000000000000000000008152506040518060400160405280600381526020017f53435400000000000000000000000000000000000000000000000000000000008152508181816003908051906020019062000098929190620000fd565b508060049080519060200190620000b1929190620000fd565b50505033600560006101000a81548173ffffffffffffffffffffffffffffffffffffffff021916908373ffffffffffffffffffffffffffffffffffffffff160217905550505062000212565b8280546200010b90620001ad565b90600052602060002090601f0160209004810192826200012f57600085556200017b565b82601f106200014a57805160ff19168380011785556200017b565b828001600101855582156200017b579182015b828111156200017a5782518255916020019190600101906200015d565b5b5090506200018a91906200018e565b5090565b5b80821115620001a95760008160009055506001016200018f565b5090565b60006002820490506001821680620001c657607f821691505b60208210811415620001dd57620001dc620001e3565b5b50919050565b7f4e487b7100000000000000000000000000000000000000000000000000000000600052602260045260246000fd5b611ad880620002226000396000f3fe608060405234801561001057600080fd5b50600436106100f55760003560e01c806370a0823111610097578063a9059cbb11610066578063a9059cbb1461029a578063dd62ed3e146102ca578063e2f273bd146102fa578063f851a44014610316576100f5565b806370a082311461020057806395d89b41146102305780639dc29fac1461024e578063a457c2d71461026a576100f5565b806323b872dd116100d357806323b872dd14610166578063313ce5671461019657806339509351146101b457806340c10f19146101e4576100f5565b806306fdde03146100fa578063095ea7b31461011857806318160ddd14610148575b600080fd5b610102610334565b60405161010f91906113fa565b60405180910390f35b610132600480360381019061012d9190611192565b6103c6565b60405161013f91906113df565b60405180910390f35b6101506103e9565b60405161015d919061157c565b60405180910390f35b610180600480360381019061017b9190611143565b6103f3565b60405161018d91906113df565b60405180910390f35b61019e610422565b6040516101ab9190611597565b60405180910390f35b6101ce60048036038101906101c99190611192565b61042b565b6040516101db91906113df565b60405180910390f35b6101fe60048036038101906101f99190611192565b610462565b005b61021a600480360381019061021591906110de565b610500565b604051610227919061157c565b60405180910390f35b610238610548565b60405161024591906113fa565b60405180910390f35b61026860048036038101906102639190611192565b6105da565b005b610284600480360381019061027f9190611192565b610678565b60405161029191906113df565b60405180910390f35b6102b460048036038101906102af9190611192565b6106ef565b6040516102c191906113df565b60405180910390f35b6102e460048036038101906102df9190611107565b610712565b6040516102f1919061157c565b60405180910390f35b610314600480360381019061030f91906110de565b610799565b005b61031e61086d565b60405161032b91906113c4565b60405180910390f35b606060038054610343906116e0565b80601f016020809104026020016040519081016040528092919081815260200182805461036f906116e0565b80156103bc5780601f10610391576101008083540402835291602001916103bc565b820191906000526020600020905b81548152906001019060200180831161039f57829003601f168201915b5050505050905090565b6000806103d1610893565b90506103de81858561089b565b600191505092915050565b6000600254905090565b6000806103fe610893565b905061040b858285610a66565b610416858585610af2565b60019150509392505050565b60006012905090565b600080610436610893565b90506104578185856104488589610712565b61045291906115ce565b61089b565b600191505092915050565b600560009054906101000a900473ffffffffffffffffffffffffffffffffffffffff1673ffffffffffffffffffffffffffffffffffffffff163373ffffffffffffffffffffffffffffffffffffffff16146104f2576040517f08c379a00000000000000000000000000000000000000000000000000000000081526004016104e9906114bc565b60405180910390fd5b6104fc8282610d73565b5050565b60008060008373ffffffffffffffffffffffffffffffffffffffff1673ffffffffffffffffffffffffffffffffffffffff168152602001908152602001600020549050919050565b606060048054610557906116e0565b80601f0160208091040260200160405190810160405280929190818152602001828054610583906116e0565b80156105d05780601f106105a5576101008083540402835291602001916105d0565b820191906000526020600020905b8154815290600101906020018083116105b357829003601f168201915b5050505050905090565b600560009054906101000a900473ffffffffffffffffffffffffffffffffffffffff1673ffffffffffffffffffffffffffffffffffffffff163373ffffffffffffffffffffffffffffffffffffffff161461066a576040517f08c379a0000000000000000000000000000000000000000000000000000000008152600401610661906114bc565b60405180910390fd5b6106748282610ed3565b5050565b600080610683610893565b905060006106918286610712565b9050838110156106d6576040517f08c379a00000000000000000000000000000000000000000000000000000000081526004016106cd9061153c565b60405180910390fd5b6106e3828686840361089b565b60019250505092915050565b6000806106fa610893565b9050610707818585610af2565b600191505092915050565b6000600160008473ffffffffffffffffffffffffffffffffffffffff1673ffffffffffffffffffffffffffffffffffffffff16815260200190815260200160002060008373ffffffffffffffffffffffffffffffffffffffff1673ffffffffffffffffffffffffffffffffffffffff16815260200190815260200160002054905092915050565b600560009054906101000a900473ffffffffffffffffffffffffffffffffffffffff1673ffffffffffffffffffffffffffffffffffffffff163373ffffffffffffffffffffffffffffffffffffffff1614610829576040517f08c379a0000000000000000000000000000000000000000000000000000000008152600401610820906114bc565b60405180910390fd5b80600560006101000a81548173ffffffffffffffffffffffffffffffffffffffff021916908373ffffffffffffffffffffffffffffffffffffffff16021790555050565b600560009054906101000a900473ffffffffffffffffffffffffffffffffffffffff1681565b600033905090565b600073ffffffffffffffffffffffffffffffffffffffff168373ffffffffffffffffffffffffffffffffffffffff16141561090b576040517f08c379a00000000000000000000000000000000000000000000000000000000081526004016109029061151c565b60405180910390fd5b600073ffffffffffffffffffffffffffffffffffffffff168273ffffffffffffffffffffffffffffffffffffffff16141561097b576040517f08c379a00000000000000000000000000000000000000000000000000000000081526004016109729061145c565b60405180910390fd5b80600160008573ffffffffffffffffffffffffffffffffffffffff1673ffffffffffffffffffffffffffffffffffffffff16815260200190815260200160002060008473ffffffffffffffffffffffffffffffffffffffff1673ffffffffffffffffffffffffffffffffffffffff168152602001908152602001600020819055508173ffffffffffffffffffffffffffffffffffffffff168373ffffffffffffffffffffffffffffffffffffffff167f8c5be1e5ebec7d5bd14f71427d1e84f3dd0314c0f7b2291e5b200ac8c7c3b92583604051610a59919061157c565b60405180910390a3505050565b6000610a728484610712565b90507fffffffffffffffffffffffffffffffffffffffffffffffffffffffffffffffff8114610aec5781811015610ade576040517f08c379a0000000000000000000000000000000000000000000000000000000008152600401610ad59061147c565b60405180910390fd5b610aeb848484840361089b565b5b50505050565b600073ffffffffffffffffffffffffffffffffffffffff168373ffffffffffffffffffffffffffffffffffffffff161415610b62576040517f08c379a0000000000000000000000000000000000000000000000000000000008152600401610b59906114fc565b60405180910390fd5b600073ffffffffffffffffffffffffffffffffffffffff168273ffffffffffffffffffffffffffffffffffffffff161415610bd2576040517f08c379a0000000000000000000000000000000000000000000000000000000008152600401610bc99061141c565b60405180910390fd5b610bdd8383836110aa565b60008060008573ffffffffffffffffffffffffffffffffffffffff1673ffffffffffffffffffffffffffffffffffffffff16815260200190815260200160002054905081811015610c63576040517f08c379a0000000000000000000000000000000000000000000000000000000008152600401610c5a9061149c565b60405180910390fd5b8181036000808673ffffffffffffffffffffffffffffffffffffffff1673ffffffffffffffffffffffffffffffffffffffff16815260200190815260200160002081905550816000808573ffffffffffffffffffffffffffffffffffffffff1673ffffffffffffffffffffffffffffffffffffffff1681526020019081526020016000206000828254610cf691906115ce565b925050819055508273ffffffffffffffffffffffffffffffffffffffff168473ffffffffffffffffffffffffffffffffffffffff167fddf252ad1be2c89b69c2b068fc378daa952ba7f163c4a11628f55a4df523b3ef84604051610d5a919061157c565b60405180910390a3610d6d8484846110af565b50505050565b600073ffffffffffffffffffffffffffffffffffffffff168273ffffffffffffffffffffffffffffffffffffffff161415610de3576040517f08c379a0000000000000000000000000000000000000000000000000000000008152600401610dda9061155c565b60405180910390fd5b610def600083836110aa565b8060026000828254610e0191906115ce565b92505081905550806000808473ffffffffffffffffffffffffffffffffffffffff1673ffffffffffffffffffffffffffffffffffffffff1681526020019081526020016000206000828254610e5691906115ce565b925050819055508173ffffffffffffffffffffffffffffffffffffffff16600073ffffffffffffffffffffffffffffffffffffffff167fddf252ad1be2c89b69c2b068fc378daa952ba7f163c4a11628f55a4df523b3ef83604051610ebb919061157c565b60405180910390a3610ecf600083836110af565b5050565b600073ffffffffffffffffffffffffffffffffffffffff168273ffffffffffffffffffffffffffffffffffffffff161415610f43576040517f08c379a0000000000000000000000000000000000000000000000000000000008152600401610f3a906114dc565b60405180910390fd5b610f4f826000836110aa565b60008060008473ffffffffffffffffffffffffffffffffffffffff1673ffffffffffffffffffffffffffffffffffffffff16815260200190815260200160002054905081811015610fd5576040517f08c379a0000000000000000000000000000000000000000000000000000000008152600401610fcc9061143c565b60405180910390fd5b8181036000808573ffffffffffffffffffffffffffffffffffffffff1673ffffffffffffffffffffffffffffffffffffffff16815260200190815260200160002081905550816002600082825461102c9190611624565b92505081905550600073ffffffffffffffffffffffffffffffffffffffff168373ffffffffffffffffffffffffffffffffffffffff167fddf252ad1be2c89b69c2b068fc378daa952ba7f163c4a11628f55a4df523b3ef84604051611091919061157c565b60405180910390a36110a5836000846110af565b505050565b505050565b505050565b6000813590506110c381611a74565b92915050565b6000813590506110d881611a8b565b92915050565b6000602082840312156110f057600080fd5b60006110fe848285016110b4565b91505092915050565b6000806040838503121561111a57600080fd5b6000611128858286016110b4565b9250506020611139858286016110b4565b9150509250929050565b60008060006060848603121561115857600080fd5b6000611166868287016110b4565b9350506020611177868287016110b4565b9250506040611188868287016110c9565b9150509250925092565b600080604083850312156111a557600080fd5b60006111b3858286016110b4565b92505060206111c4858286016110c9565b9150509250929050565b6111d781611658565b82525050565b6111e68161166a565b82525050565b60006111f7826115b2565b61120181856115bd565b93506112118185602086016116ad565b61121a81611770565b840191505092915050565b60006112326023836115bd565b915061123d82611781565b604082019050919050565b60006112556022836115bd565b9150611260826117d0565b604082019050919050565b60006112786022836115bd565b91506112838261181f565b604082019050919050565b600061129b601d836115bd565b91506112a68261186e565b602082019050919050565b60006112be6026836115bd565b91506112c982611897565b604082019050919050565b60006112e1600a836115bd565b91506112ec826118e6565b602082019050919050565b60006113046021836115bd565b915061130f8261190f565b604082019050919050565b60006113276025836115bd565b91506113328261195e565b604082019050919050565b600061134a6024836115bd565b9150611355826119ad565b604082019050919050565b600061136d6025836115bd565b9150611378826119fc565b604082019050919050565b6000611390601f836115bd565b915061139b82611a4b565b602082019050919050565b6113af81611696565b82525050565b6113be816116a0565b82525050565b60006020820190506113d960008301846111ce565b92915050565b60006020820190506113f460008301846111dd565b92915050565b6000602082019050818103600083015261141481846111ec565b905092915050565b6000602082019050818103600083015261143581611225565b9050919050565b6000602082019050818103600083015261145581611248565b9050919050565b600060208201905081810360008301526114758161126b565b9050919050565b600060208201905081810360008301526114958161128e565b9050919050565b600060208201905081810360008301526114b5816112b1565b9050919050565b600060208201905081810360008301526114d5816112d4565b9050919050565b600060208201905081810360008301526114f5816112f7565b9050919050565b600060208201905081810360008301526115158161131a565b9050919050565b600060208201905081810360008301526115358161133d565b9050919050565b6000602082019050818103600083015261155581611360565b9050919050565b6000602082019050818103600083015261157581611383565b9050919050565b600060208201905061159160008301846113a6565b92915050565b60006020820190506115ac60008301846113b5565b92915050565b600081519050919050565b600082825260208201905092915050565b60006115d982611696565b91506115e483611696565b9250827fffffffffffffffffffffffffffffffffffffffffffffffffffffffffffffffff0382111561161957611618611712565b5b828201905092915050565b600061162f82611696565b915061163a83611696565b92508282101561164d5761164c611712565b5b828203905092915050565b600061166382611676565b9050919050565b60008115159050919050565b600073ffffffffffffffffffffffffffffffffffffffff82169050919050565b6000819050919050565b600060ff82169050919050565b60005b838110156116cb5780820151818401526020810190506116b0565b838111156116da576000848401525b50505050565b600060028204905060018216806116f857607f821691505b6020821081141561170c5761170b611741565b5b50919050565b7f4e487b7100000000000000000000000000000000000000000000000000000000600052601160045260246000fd5b7f4e487b7100000000000000000000000000000000000000000000000000000000600052602260045260246000fd5b6000601f19601f8301169050919050565b7f45524332303a207472616e7366657220746f20746865207a65726f206164647260008201527f6573730000000000000000000000000000000000000000000000000000000000602082015250565b7f45524332303a206275726e20616d6f756e7420657863656564732062616c616e60008201527f6365000000000000000000000000000000000000000000000000000000000000602082015250565b7f45524332303a20617070726f766520746f20746865207a65726f20616464726560008201527f7373000000000000000000000000000000000000000000000000000000000000602082015250565b7f45524332303a20696e73756666696369656e7420616c6c6f77616e6365000000600082015250565b7f45524332303a207472616e7366657220616d6f756e742065786365656473206260008201527f616c616e63650000000000000000000000000000000000000000000000000000602082015250565b7f4f6e6c792061646d696e00000000000000000000000000000000000000000000600082015250565b7f45524332303a206275726e2066726f6d20746865207a65726f2061646472657360008201527f7300000000000000000000000000000000000000000000000000000000000000602082015250565b7f45524332303a207472616e736665722066726f6d20746865207a65726f20616460008201527f6472657373000000000000000000000000000000000000000000000000000000602082015250565b7f45524332303a20617070726f76652066726f6d20746865207a65726f2061646460008201527f7265737300000000000000000000000000000000000000000000000000000000602082015250565b7f45524332303a2064656372656173656420616c6c6f77616e63652062656c6f7760008201527f207a65726f000000000000000000000000000000000000000000000000000000602082015250565b7f45524332303a206d696e7420746f20746865207a65726f206164647265737300600082015250565b611a7d81611658565b8114611a8857600080fd5b50565b611a9481611696565b8114611a9f57600080fd5b5056fea26469706673582212203102f4a16bd920211c7713302947c078a53b6c7daec76990f6f778180248281864736f6c63430008040033",
  "linkReferences": {},
  "deployedLinkReferences": {}
}