{
  "_format": "hh-sol-artifact-1",
  "contractName": "SourceChainToken",
  "sourceName": "contracts/Token/SourceChainToken.sol",
  "abi": [
    {
      "inputs": [],
      "stateMutability": "nonpayable",
      "type": "constructor"
    },
    {
      "anonymous": false,
      "inputs": [
        {
          "indexed": true,
          "internalType": "address",
          "name": "owner",
          "type": "address"
        },
        {
          "indexed": true,
          "internalType": "address",
          "name": "spender",
          "type": "address"
        },
        {
          "indexed": false,
          "internalType": "uint256",
          "name": "value",
          "type": "uint256"
        }
      ],
      "name": "Approval",
      "type": "event"
    },
    {
      "anonymous": false,
      "inputs": [
        {
          "indexed": true,
          "internalType": "address",
          "name": "from",
          "type": "address"
        },
        {
          "indexed": true,
          "internalType": "address",
          "name": "to",
          "type": "address"
        },
        {
          "indexed": false,
          "internalType": "uint256",
          "name": "value",
          "type": "uint256"
        }
      ],
      "name": "Transfer",
      "type": "event"
    },
    {
      "inputs": [
        {
          "internalType": "address",
          "name": "owner",
          "type": "address"
        },
        {
          "internalType": "address",
          "name": "spender",
          "type": "address"
        }
      ],
      "name": "allowance",
      "outputs": [
        {
          "internalType": "uint256",
          "name": "",
          "type": "uint256"
        }
      ],
      "stateMutability": "view",
      "type": "function"
    },
    {
      "inputs": [
        {
          "internalType": "address",
          "name": "spender",
          "type": "address"
        },
        {
          "internalType": "uint256",
          "name": "amount",
          "type": "uint256"
        }
      ],
      "name": "approve",
      "outputs": [
        {
          "internalType": "bool",
          "name": "",
          "type": "bool"
        }
      ],
      "stateMutability": "nonpayable",
      "type": "function"
    },
    {
      "inputs": [
        {
          "internalType": "address",
          "name": "account",
          "type": "address"
        }
      ],
      "name": "balanceOf",
      "outputs": [
        {
          "internalType": "uint256",
          "name": "",
          "type": "uint256"
        }
      ],
      "stateMutability": "view",
      "type": "function"
    },
    {
      "inputs": [
        {
          "internalType": "address",
          "name": "owner",
          "type": "address"
        },
        {
          "internalType": "uint256",
          "name": "amount",
          "type": "uint256"
        }
      ],
      "name": "burn",
      "outputs": [],
      "stateMutability": "nonpayable",
      "type": "function"
    },
    {
      "inputs": [],
      "name": "decimals",
      "outputs": [
        {
          "internalType": "uint8",
          "name": "",
          "type": "uint8"
        }
      ],
      "stateMutability": "view",
      "type": "function"
    },
    {
      "inputs": [
        {
          "internalType": "address",
          "name": "spender",
          "type": "address"
        },
        {
          "internalType": "uint256",
          "name": "subtractedValue",
          "type": "uint256"
        }
      ],
      "name": "decreaseAllowance",
      "outputs": [
        {
          "internalType": "bool",
          "name": "",
          "type": "bool"
        }
      ],
      "stateMutability": "nonpayable",
      "type": "function"
    },
    {
      "inputs": [
        {
          "internalType": "address",
          "name": "spender",
          "type": "address"
        },
        {
          "internalType": "uint256",
          "name": "addedValue",
          "type": "uint256"
        }
      ],
      "name": "increaseAllowance",
      "outputs": [
        {
          "internalType": "bool",
          "name": "",
          "type": "bool"
        }
      ],
      "stateMutability": "nonpayable",
      "type": "function"
    },
    {
      "inputs": [
        {
          "internalType": "address",
          "name": "owner",
          "type": "address"
        },
        {
          "internalType": "address",
          "name": "recipdent",
          "type": "address"
        },
        {
          "internalType": "uint256",
          "name": "amount",
          "type": "uint256"
        }
      ],
      "name": "lock",
      "outputs": [],
      "stateMutability": "nonpayable",
      "type": "function"
    },
    {
      "inputs": [
        {
          "internalType": "address",
          "name": "to",
          "type": "address"
        },
        {
          "internalType": "uint256",
          "name": "amount",
          "type": "uint256"
        }
      ],
      "name": "mint",
      "outputs": [],
      "stateMutability": "nonpayable",
      "type": "function"
    },
    {
      "inputs": [],
      "name": "name",
      "outputs": [
        {
          "internalType": "string",
          "name": "",
          "type": "string"
        }
      ],
      "stateMutability": "view",
      "type": "function"
    },
    {
      "inputs": [
        {
          "internalType": "address",
          "name": "recipdent",
          "type": "address"
        },
        {
          "internalType": "uint256",
          "name": "amount",
          "type": "uint256"
        }
      ],
      "name": "release",
      "outputs": [],
      "stateMutability": "nonpayable",
      "type": "function"
    },
    {
      "inputs": [],
      "name": "symbol",
      "outputs": [
        {
          "internalType": "string",
          "name": "",
          "type": "string"
        }
      ],
      "stateMutability": "view",
      "type": "function"
    },
    {
      "inputs": [],
      "name": "totalSupply",
      "outputs": [
        {
          "internalType": "uint256",
          "name": "",
          "type": "uint256"
        }
      ],
      "stateMutability": "view",
      "type": "function"
    },
    {
      "inputs": [
        {
          "internalType": "address",
          "name": "to",
          "type": "address"
        },
        {
          "internalType": "uint256",
          "name": "amount",
          "type": "uint256"
        }
      ],
      "name": "transfer",
      "outputs": [
        {
          "internalType": "bool",
          "name": "",
          "type": "bool"
        }
      ],
      "stateMutability": "nonpayable",
      "type": "function"
    },
    {
      "inputs": [
        {
          "internalType": "address",
          "name": "from",
          "type": "address"
        },
        {
          "internalType": "address",
          "name": "to",
          "type": "address"
        },
        {
          "internalType": "uint256",
          "name": "amount",
          "type": "uint256"
        }
      ],
      "name": "transferFrom",
      "outputs": [
        {
          "internalType": "bool",
          "name": "",
          "type": "bool"
        }
      ],
      "stateMutability": "nonpayable",
      "type": "function"
    }
  ],
  "bytecode": "0x60806040523480156200001157600080fd5b506040518060400160405280601081526020017f536f75726365436861696e546f6b656e000000000000000000000000000000008152506040518060400160405280600381526020017f5343540000000000000000000000000000000000000000000000000000000000815250818181600390805190602001906200009892919062000254565b508060049080519060200190620000b192919062000254565b505050620000c933620f4240620000d160201b60201c565b5050620004b0565b600073ffffffffffffffffffffffffffffffffffffffff168273ffffffffffffffffffffffffffffffffffffffff16141562000144576040517f08c379a00000000000000000000000000000000000000000000000000000000081526004016200013b906200033c565b60405180910390fd5b62000158600083836200024a60201b60201c565b80600260008282546200016c91906200038c565b92505081905550806000808473ffffffffffffffffffffffffffffffffffffffff1673ffffffffffffffffffffffffffffffffffffffff1681526020019081526020016000206000828254620001c391906200038c565b925050819055508173ffffffffffffffffffffffffffffffffffffffff16600073ffffffffffffffffffffffffffffffffffffffff167fddf252ad1be2c89b69c2b068fc378daa952ba7f163c4a11628f55a4df523b3ef836040516200022a91906200035e565b60405180910390a362000246600083836200024f60201b60201c565b5050565b505050565b505050565b8280546200026290620003f3565b90600052602060002090601f016020900481019282620002865760008555620002d2565b82601f10620002a157805160ff1916838001178555620002d2565b82800160010185558215620002d2579182015b82811115620002d1578251825591602001919060010190620002b4565b5b509050620002e19190620002e5565b5090565b5b8082111562000300576000816000905550600101620002e6565b5090565b600062000313601f836200037b565b9150620003208262000487565b602082019050919050565b6200033681620003e9565b82525050565b60006020820190508181036000830152620003578162000304565b9050919050565b60006020820190506200037560008301846200032b565b92915050565b600082825260208201905092915050565b60006200039982620003e9565b9150620003a683620003e9565b9250827fffffffffffffffffffffffffffffffffffffffffffffffffffffffffffffffff03821115620003de57620003dd62000429565b5b828201905092915050565b6000819050919050565b600060028204905060018216806200040c57607f821691505b6020821081141562000423576200042262000458565b5b50919050565b7f4e487b7100000000000000000000000000000000000000000000000000000000600052601160045260246000fd5b7f4e487b7100000000000000000000000000000000000000000000000000000000600052602260045260246000fd5b7f45524332303a206d696e7420746f20746865207a65726f206164647265737300600082015250565b61184580620004c06000396000f3fe608060405234801561001057600080fd5b50600436106100f55760003560e01c806340c10f19116100975780639dc29fac116100665780639dc29fac14610286578063a457c2d7146102a2578063a9059cbb146102d2578063dd62ed3e14610302576100f5565b806340c10f191461020057806370a082311461021c5780637750c9f01461024c57806395d89b4114610268576100f5565b806318160ddd116100d357806318160ddd1461016457806323b872dd14610182578063313ce567146101b257806339509351146101d0576100f5565b80630357371d146100fa57806306fdde0314610116578063095ea7b314610134575b600080fd5b610114600480360381019061010f9190610f95565b610332565b005b61011e610341565b60405161012b91906111b0565b60405180910390f35b61014e60048036038101906101499190610f95565b6103d3565b60405161015b9190611195565b60405180910390f35b61016c6103f6565b6040516101799190611312565b60405180910390f35b61019c60048036038101906101979190610f46565b610400565b6040516101a99190611195565b60405180910390f35b6101ba61042f565b6040516101c7919061132d565b60405180910390f35b6101ea60048036038101906101e59190610f95565b610438565b6040516101f79190611195565b60405180910390f35b61021a60048036038101906102159190610f95565b61046f565b005b61023660048036038101906102319190610ee1565b61047d565b6040516102439190611312565b60405180910390f35b61026660048036038101906102619190610f46565b6104c5565b005b6102706104d5565b60405161027d91906111b0565b60405180910390f35b6102a0600480360381019061029b9190610f95565b610567565b005b6102bc60048036038101906102b79190610f95565b610575565b6040516102c99190611195565b60405180910390f35b6102ec60048036038101906102e79190610f95565b6105ec565b6040516102f99190611195565b60405180910390f35b61031c60048036038101906103179190610f0a565b61060f565b6040516103299190611312565b60405180910390f35b61033c82826105ec565b505050565b60606003805461035090611476565b80601f016020809104026020016040519081016040528092919081815260200182805461037c90611476565b80156103c95780601f1061039e576101008083540402835291602001916103c9565b820191906000526020600020905b8154815290600101906020018083116103ac57829003601f168201915b5050505050905090565b6000806103de610696565b90506103eb81858561069e565b600191505092915050565b6000600254905090565b60008061040b610696565b9050610418858285610869565b6104238585856108f5565b60019150509392505050565b60006012905090565b600080610443610696565b9050610464818585610455858961060f565b61045f9190611364565b61069e565b600191505092915050565b6104798282610b76565b5050565b60008060008373ffffffffffffffffffffffffffffffffffffffff1673ffffffffffffffffffffffffffffffffffffffff168152602001908152602001600020549050919050565b6104d08383836108f5565b505050565b6060600480546104e490611476565b80601f016020809104026020016040519081016040528092919081815260200182805461051090611476565b801561055d5780601f106105325761010080835404028352916020019161055d565b820191906000526020600020905b81548152906001019060200180831161054057829003601f168201915b5050505050905090565b6105718282610cd6565b5050565b600080610580610696565b9050600061058e828661060f565b9050838110156105d3576040517f08c379a00000000000000000000000000000000000000000000000000000000081526004016105ca906112d2565b60405180910390fd5b6105e0828686840361069e565b60019250505092915050565b6000806105f7610696565b90506106048185856108f5565b600191505092915050565b6000600160008473ffffffffffffffffffffffffffffffffffffffff1673ffffffffffffffffffffffffffffffffffffffff16815260200190815260200160002060008373ffffffffffffffffffffffffffffffffffffffff1673ffffffffffffffffffffffffffffffffffffffff16815260200190815260200160002054905092915050565b600033905090565b600073ffffffffffffffffffffffffffffffffffffffff168373ffffffffffffffffffffffffffffffffffffffff16141561070e576040517f08c379a0000000000000000000000000000000000000000000000000000000008152600401610705906112b2565b60405180910390fd5b600073ffffffffffffffffffffffffffffffffffffffff168273ffffffffffffffffffffffffffffffffffffffff16141561077e576040517f08c379a000000000000000000000000000000000000000000000000000000000815260040161077590611212565b60405180910390fd5b80600160008573ffffffffffffffffffffffffffffffffffffffff1673ffffffffffffffffffffffffffffffffffffffff16815260200190815260200160002060008473ffffffffffffffffffffffffffffffffffffffff1673ffffffffffffffffffffffffffffffffffffffff168152602001908152602001600020819055508173ffffffffffffffffffffffffffffffffffffffff168373ffffffffffffffffffffffffffffffffffffffff167f8c5be1e5ebec7d5bd14f71427d1e84f3dd0314c0f7b2291e5b200ac8c7c3b9258360405161085c9190611312565b60405180910390a3505050565b6000610875848461060f565b90507fffffffffffffffffffffffffffffffffffffffffffffffffffffffffffffffff81146108ef57818110156108e1576040517f08c379a00000000000000000000000000000000000000000000000000000000081526004016108d890611232565b60405180910390fd5b6108ee848484840361069e565b5b50505050565b600073ffffffffffffffffffffffffffffffffffffffff168373ffffffffffffffffffffffffffffffffffffffff161415610965576040517f08c379a000000000000000000000000000000000000000000000000000000000815260040161095c90611292565b60405180910390fd5b600073ffffffffffffffffffffffffffffffffffffffff168273ffffffffffffffffffffffffffffffffffffffff1614156109d5576040517f08c379a00000000000000000000000000000000000000000000000000000000081526004016109cc906111d2565b60405180910390fd5b6109e0838383610ead565b60008060008573ffffffffffffffffffffffffffffffffffffffff1673ffffffffffffffffffffffffffffffffffffffff16815260200190815260200160002054905081811015610a66576040517f08c379a0000000000000000000000000000000000000000000000000000000008152600401610a5d90611252565b60405180910390fd5b8181036000808673ffffffffffffffffffffffffffffffffffffffff1673ffffffffffffffffffffffffffffffffffffffff16815260200190815260200160002081905550816000808573ffffffffffffffffffffffffffffffffffffffff1673ffffffffffffffffffffffffffffffffffffffff1681526020019081526020016000206000828254610af99190611364565b925050819055508273ffffffffffffffffffffffffffffffffffffffff168473ffffffffffffffffffffffffffffffffffffffff167fddf252ad1be2c89b69c2b068fc378daa952ba7f163c4a11628f55a4df523b3ef84604051610b5d9190611312565b60405180910390a3610b70848484610eb2565b50505050565b600073ffffffffffffffffffffffffffffffffffffffff168273ffffffffffffffffffffffffffffffffffffffff161415610be6576040517f08c379a0000000000000000000000000000000000000000000000000000000008152600401610bdd906112f2565b60405180910390fd5b610bf260008383610ead565b8060026000828254610c049190611364565b92505081905550806000808473ffffffffffffffffffffffffffffffffffffffff1673ffffffffffffffffffffffffffffffffffffffff1681526020019081526020016000206000828254610c599190611364565b925050819055508173ffffffffffffffffffffffffffffffffffffffff16600073ffffffffffffffffffffffffffffffffffffffff167fddf252ad1be2c89b69c2b068fc378daa952ba7f163c4a11628f55a4df523b3ef83604051610cbe9190611312565b60405180910390a3610cd260008383610eb2565b5050565b600073ffffffffffffffffffffffffffffffffffffffff168273ffffffffffffffffffffffffffffffffffffffff161415610d46576040517f08c379a0000000000000000000000000000000000000000000000000000000008152600401610d3d90611272565b60405180910390fd5b610d5282600083610ead565b60008060008473ffffffffffffffffffffffffffffffffffffffff1673ffffffffffffffffffffffffffffffffffffffff16815260200190815260200160002054905081811015610dd8576040517f08c379a0000000000000000000000000000000000000000000000000000000008152600401610dcf906111f2565b60405180910390fd5b8181036000808573ffffffffffffffffffffffffffffffffffffffff1673ffffffffffffffffffffffffffffffffffffffff168152602001908152602001600020819055508160026000828254610e2f91906113ba565b92505081905550600073ffffffffffffffffffffffffffffffffffffffff168373ffffffffffffffffffffffffffffffffffffffff167fddf252ad1be2c89b69c2b068fc378daa952ba7f163c4a11628f55a4df523b3ef84604051610e949190611312565b60405180910390a3610ea883600084610eb2565b505050565b505050565b505050565b600081359050610ec6816117e1565b92915050565b600081359050610edb816117f8565b92915050565b600060208284031215610ef357600080fd5b6000610f0184828501610eb7565b91505092915050565b60008060408385031215610f1d57600080fd5b6000610f2b85828601610eb7565b9250506020610f3c85828601610eb7565b9150509250929050565b600080600060608486031215610f5b57600080fd5b6000610f6986828701610eb7565b9350506020610f7a86828701610eb7565b9250506040610f8b86828701610ecc565b9150509250925092565b60008060408385031215610fa857600080fd5b6000610fb685828601610eb7565b9250506020610fc785828601610ecc565b9150509250929050565b610fda81611400565b82525050565b6000610feb82611348565b610ff58185611353565b9350611005818560208601611443565b61100e81611506565b840191505092915050565b6000611026602383611353565b915061103182611517565b604082019050919050565b6000611049602283611353565b915061105482611566565b604082019050919050565b600061106c602283611353565b9150611077826115b5565b604082019050919050565b600061108f601d83611353565b915061109a82611604565b602082019050919050565b60006110b2602683611353565b91506110bd8261162d565b604082019050919050565b60006110d5602183611353565b91506110e08261167c565b604082019050919050565b60006110f8602583611353565b9150611103826116cb565b604082019050919050565b600061111b602483611353565b91506111268261171a565b604082019050919050565b600061113e602583611353565b915061114982611769565b604082019050919050565b6000611161601f83611353565b915061116c826117b8565b602082019050919050565b6111808161142c565b82525050565b61118f81611436565b82525050565b60006020820190506111aa6000830184610fd1565b92915050565b600060208201905081810360008301526111ca8184610fe0565b905092915050565b600060208201905081810360008301526111eb81611019565b9050919050565b6000602082019050818103600083015261120b8161103c565b9050919050565b6000602082019050818103600083015261122b8161105f565b9050919050565b6000602082019050818103600083015261124b81611082565b9050919050565b6000602082019050818103600083015261126b816110a5565b9050919050565b6000602082019050818103600083015261128b816110c8565b9050919050565b600060208201905081810360008301526112ab816110eb565b9050919050565b600060208201905081810360008301526112cb8161110e565b9050919050565b600060208201905081810360008301526112eb81611131565b9050919050565b6000602082019050818103600083015261130b81611154565b9050919050565b60006020820190506113276000830184611177565b92915050565b60006020820190506113426000830184611186565b92915050565b600081519050919050565b600082825260208201905092915050565b600061136f8261142c565b915061137a8361142c565b9250827fffffffffffffffffffffffffffffffffffffffffffffffffffffffffffffffff038211156113af576113ae6114a8565b5b828201905092915050565b60006113c58261142c565b91506113d08361142c565b9250828210156113e3576113e26114a8565b5b828203905092915050565b60006113f98261140c565b9050919050565b60008115159050919050565b600073ffffffffffffffffffffffffffffffffffffffff82169050919050565b6000819050919050565b600060ff82169050919050565b60005b83811015611461578082015181840152602081019050611446565b83811115611470576000848401525b50505050565b6000600282049050600182168061148e57607f821691505b602082108114156114a2576114a16114d7565b5b50919050565b7f4e487b7100000000000000000000000000000000000000000000000000000000600052601160045260246000fd5b7f4e487b7100000000000000000000000000000000000000000000000000000000600052602260045260246000fd5b6000601f19601f8301169050919050565b7f45524332303a207472616e7366657220746f20746865207a65726f206164647260008201527f6573730000000000000000000000000000000000000000000000000000000000602082015250565b7f45524332303a206275726e20616d6f756e7420657863656564732062616c616e60008201527f6365000000000000000000000000000000000000000000000000000000000000602082015250565b7f45524332303a20617070726f766520746f20746865207a65726f20616464726560008201527f7373000000000000000000000000000000000000000000000000000000000000602082015250565b7f45524332303a20696e73756666696369656e7420616c6c6f77616e6365000000600082015250565b7f45524332303a207472616e7366657220616d6f756e742065786365656473206260008201527f616c616e63650000000000000000000000000000000000000000000000000000602082015250565b7f45524332303a206275726e2066726f6d20746865207a65726f2061646472657360008201527f7300000000000000000000000000000000000000000000000000000000000000602082015250565b7f45524332303a207472616e736665722066726f6d20746865207a65726f20616460008201527f6472657373000000000000000000000000000000000000000000000000000000602082015250565b7f45524332303a20617070726f76652066726f6d20746865207a65726f2061646460008201527f7265737300000000000000000000000000000000000000000000000000000000602082015250565b7f45524332303a2064656372656173656420616c6c6f77616e63652062656c6f7760008201527f207a65726f000000000000000000000000000000000000000000000000000000602082015250565b7f45524332303a206d696e7420746f20746865207a65726f206164647265737300600082015250565b6117ea816113ee565b81146117f557600080fd5b50565b6118018161142c565b811461180c57600080fd5b5056fea2646970667358221220c06306b7ca338ab8c48311afe544000848d06289fa4436dc6c42e20c3b96db4c64736f6c63430008040033",
  "linkReferences": {},
  "deployedLinkReferences": {}
}